:020000040800F2
:1000000050D7002029030008DD420008373B0008D4
:100010004D4100088B060008A96C00080000000094
:10002000000000000000000000000000690200085D
:100030005D0D000800000000C5020008594B0008D3
:100040004303000843030008430300084303000878
:100050004303000843030008430300084303000868
:100060004303000843030008430300084303000858
:10007000D50C0008430300084303000843030008AD
:10008000430300084303000843030008490700082E
:100090003D0700084303000843030008430300082A
:1000A0004303000843030008430300084303000818
:1000B000414C0008430300084303000843030008C1
:1000C00043030008430300084303000843030008F8
:1000D0004303000843030008430300082D510008B0
:1000E00043030008430300084303000843030008D8
:1000F00043030008430300084303000843030008C8
:1001000043030008430300084303000843030008B7
:1001100043030008430300084303000843030008A7
:100120004303000843030008430300084303000897
:100130004303000843030008430300086107000865
:10014000550700084303000843030008E142000884
:100150004303000843030008430300084303000867
:100160004303000843030008430300084303000857
:100170004303000843030008430300080000000095
:10018000430300084303000800F002F800F05CF8A5
:100190000AA090E8000C82448344AAF10107DA45E2
:1001A00001D100F051F8AFF2090EBAE80F0013F0D8
:1001B000010F18BFFB1A43F00103184750810000DC
:1001C000708100000A444FF0000C10F8013B13F05E
:1001D000070408BF10F8014B1D1108BF10F8015BA0
:1001E000641E05D010F8016B641E01F8016BF9D193
:1001F00013F0080F1EBF10F8014BAD1C0C1B09D1EA
:100200006D1E58BF01F801CBFAD505E014F8016B5B
:1002100001F8016B6D1EF9D59142D6D370470000ED
:100220000023002400250026103A28BF78C1FBD8FF
:10023000520728BF30C148BF0B6070471FB507F099
:100240005DFF1FBD10B510BD00F0CDF91146FFF7E1
:10025000F5FF07F0ECF800F0EBF903B4FFF7F2FF5D
:1002600003BC00F0EFF900002C4B19680868B0E8F7
:10027000F04F80F30988BFF36F8F4FF0000080F3D9
:10028000118870470000000008480068006880F38B
:1002900008884FF0000080F3148862B661B6BFF39F
:1002A0004F8FBFF36F8F00DF00BF00BF08ED00E08E
:1002B000DFF80C00016841F470010160704700BF75
:1002C00088ED00E0EFF30980BFF36F8F134B1A68DE
:1002D0001EF0100F08BF20ED108A20E9F04F1060CB
:1002E00009B44FF0500080F31188BFF34F8FBFF374
:1002F0006F8F07F035FD4FF0000080F3118809BCC7
:1003000019680868B0E8F04F1EF0100F08BFB0EC95
:10031000108A80F30988BFF36F8F7047180100209F
:10032000EFF30580704700000948804709480047FF
:10033000FEE7FEE7FEE7FEE7FEE7FEE7FEE7FEE795
:10034000FEE7FEE704480549054A064B70470000F2
:10035000314C0008890100085097002050D7002038
:1003600050B7002050B7002053EA020C00F069801B
:100370002DE9F04B4FF00006002B1FBFB3FA83F5B9
:1003800003FA05F424FA05F65E4012BF1643B2FAEA
:1003900082F502FA05F4C5F120051EBF22FA05FC1C
:1003A00044EA0C04203556EA044C4FEA144418BFC2
:1003B000641C4FF000084FF00009904271EB030CF1
:1003C00039D3002919BFB1FA81F701FA07F6B0FA5B
:1003D00080F700FA07F6C7F120071EBF20FA07FCD6
:1003E00046EA0C062037B6FBF4FCA7EB0507103FE6
:1003F00007F01F0BCBF120060CFA0BFB2CFA06F6CC
:1004000044BFB3460026202FA4BF5E464FF0000B2A
:100410005BEA060C08BF4FF0010B19EB0B09ABFBB5
:10042000027C48EB0608C01B06FB02CC0BFB03CC8E
:1004300071EB0C01C1E70B46024641464846BDE858
:10044000F08B13B54FF000004FF00001AFF30080C8
:10045000BDE81C407047032A40F2308010F0030CC6
:1004600000F0158011F8013BBCF1020F624498BF07
:1004700011F801CB00F8013B38BF11F8013BA2F1A4
:10048000040298BF00F801CB38BF00F8013B11F01F
:10049000030300F02580083AC0F0088051F8043BBF
:1004A000083A51F804CBA0E80810F5E7121D5CBF2C
:1004B00051F8043B40F8043BAFF30080D20724BF5F
:1004C00011F8013B11F801CB48BF11F8012B24BFF3
:1004D00000F8013B00F801CB48BF00F8012B704742
:1004E00010B5203AC0F00B80B1E81850203AA0E8CF
:1004F0001850B1E81850A0E81850BFF4F5AF5FEA03
:10050000027C24BFB1E81850A0E8185044BF18C9B5
:1005100018C0BDE810405FEA827C24BF51F8043B5C
:1005200040F8043B08BF7047D20728BF31F8023BB0
:1005300048BF11F8012B28BF20F8023B48BF00F844
:10054000012B70474FF000020429C0F0128010F018
:10055000030C00F01B80CCF1040CBCF1020F18BF9F
:1005600000F8012BA8BF20F8022BA1EB0C0100F032
:100570000DB85FEAC17C24BF00F8012B00F8012B05
:1005800048BF00F8012B70474FF0000200B513463A
:1005900094469646203922BFA0E80C50A0E80C50A3
:1005A000B1F12001BFF4F7AF090728BFA0E80C5054
:1005B00048BF0CC05DF804EB890028BF40F8042B4D
:1005C00008BF704748BF20F8022B11F0804F18BFBA
:1005D00000F8012B7047704770477047004870471C
:1005E000F096002070477546FFF7F8FFAE4605000D
:1005F0006946534620F00700854618B020B5FFF73E
:10060000A1FEBDE820404FF000064FF000074FF07C
:1006100000084FF0000B21F00701AC46ACE8C00920
:10062000ACE8C009ACE8C009ACE8C0098D46704729
:1006300010B50446AFF300802046BDE81040FFF738
:100640000CBE000001491820ABBEFEE726000200E8
:1006500091F82520022A16D291F826209AB1B1F9F4
:100660002A20824202DB5242824203DDD1F82E0070
:10067000401C00E00020C1F82E00B1F92C10884287
:1006800001DD0120704700207047FEE71CB5040A19
:100690008DF800408DF80100080A8DF80200100A5C
:1006A0008DF804008DF80520180A8DF806008DF8E5
:1006B00007308DF8031008236A469901014800F0BD
:1006C00055FC1CBD040400201CB5040A8DF8004034
:1006D0008DF80100080A8DF80200100A8DF8040058
:1006E0008DF80520180A8DF806008DF803108DF896
:1006F000073008236A4640F2FF11024800F036FC3A
:100700001CBD00000404002030B40A4C050A25700A
:100710006070080AA070E170100A20716271180AF6
:10072000A071E371224630BC082340F2FF11024859
:1007300000F01CBC9601002004040020014800F0D9
:10074000B1BE000004040020014800F0ABBE000070
:1007500004040020014800F0A5BE00002C04002085
:10076000014800F09FBE00002C04002070B5054633
:100770000C46002003F008FA002811D1296811481E
:10078000B1F5807F0DD0B1F5817F09D12188026854
:1007900049BA11810268A17891720068E178C1724A
:1007A00070BD2188026849BA11806188026849BA1F
:1007B0005180A188026849BA9180E188006849BAED
:1007C000C18070BDFA6D002018B50A2A5AD202EB1A
:1007D000C2022D4B02EB420203EB420424F8170C39
:1007E00024F81B1C34F81D0D081AA080608824F81A
:1007F000010914F8180938B901202076B4F81F004F
:10080000A4F8210000B26060B4F81F00B4F8211011
:10081000401A00B2B4F9231006F01EFC00902068C4
:100820000099084420606068009908446060B4F84A
:100830001F00A4F821006068B4F928104843B4F9F7
:10084000231090FBF1F000EE100AB8EEC00A10EE93
:10085000100AA0602068B4F928104843B4F92310A6
:1008600090FBF1F000EE100A2146B8EEC00A10EE3F
:10087000100A6061009800B2FFF7EAFE84F82700D2
:100880000020009018BD00001C9000200020704740
:100890000020704710B500220449054804F030FEDE
:1008A0000449034804F01FFE002010BDAC120020D4
:1008B000D0050020AC0A002010B50146034804F022
:1008C00012FE024804F0E8FD002010BDD005002013
:1008D00000207047C16B00EE101AB5EEC00AF1EEB1
:1008E00010FA00EE101A01DCB1EE400A036E00EEC1
:1008F000903AB4EEE00AF1EE10FA33D900EE101A95
:10090000B5EEC00AF1EE10FA00EE101A01DCB1EEFD
:10091000400AC26D00EE902AB4EEE00AF1EE10FA41
:1009200001DD00211DE000EE101A00EE902AB5EE68
:10093000C00AF1EE10FA00EE101A01DCB1EE400A26
:10094000C16930EEC01A00EE102A00EE903A30EE87
:10095000600AC1EE000A00EE101A20EE800A10EEC6
:10096000101AC1617047000010B50446D0F8230C7E
:10097000B0F91B10406800EE101A04F69331B8EE7F
:10098000C01A00EE100A04F60330F8EEC00A9FED1C
:100990000A0A06F06BFDD4F82F0B002300EE100AB4
:1009A000BDE81040BDEEC00A1A46194610EE100A06
:1009B00000B2FFF789BE000000C0F845F0B522483C
:1009C000224AA0F1400101F11003C86000204860F4
:1009D0000A6088601F491E4A1960C3E901200C3370
:1009E0001E4E1D4F1E60C3E9017018331C4CC3E935
:1009F00001401C4C1C600C3B1C4CDFF874C01A4DB1
:100A0000C3F808C0C3E90054283B03F16C0EC3F8D7
:100A100048C01866C3E916125865C3E913128EE878
:100A2000C100C3E9191203F1780686E80700C3F88C
:100A30008400C3E910548033C3E90212103307C3A2
:100A400007C31860F0BD0000085F00204B4B000892
:100A500031430008ED4200084D3B0008393B0008D7
:100A6000353B0008213B0008A53B0008A73B0008D8
:100A7000A93B000870B5B5EEC01A0025F1EE10FADA
:100A8000044601D0B1EE411A30EE202A70EE600A21
:100A900071EE421A30EE810AFDEEE11ABDEEC00A97
:100AA00011EE900A10EE102A31EE600A48434A43D4
:100AB000C4F80100BDEEC00AC4F8372110EE103AA8
:100AC00032EE010A4B43C4F86D32BDEEC00A10EE9F
:100AD000106A4E43C4F8A363C5EB451000EB8000D9
:100AE00004EB4000D0F82911B1F91B1000EE101AE8
:100AF000D0F801100930F8EEC00A00EE101AB8EE76
:100B0000C00A03F0CEFC6D1CEDB2042DE4D3D4F882
:100B1000D70300EE100ABDEEC00A10EE100A03B2B1
:100B2000D4F8A10200EE100ABDEEC00A10EE100AC1
:100B300002B2D4F86B0100EE100ABDEEC00A10EE4E
:100B4000100A01B2D4F83500BDE8704000EE100A7A
:100B5000BDEEC00A10EE100A00B2FFF797BD00000C
:100B600010B5164CD4F8720DD4F8822D0068B0F987
:100B70000010494200EE101AB0F90410B0F9060056
:100B8000B8EEC01A494200EE101A40420A21F8EEAF
:100B9000C00A00EE100A204604F67254B8EEC00AED
:100BA000904720680068B0F90800BDE8104000EBED
:100BB00080008100014803F09FB80000745F0020AE
:100BC00070B504465FF00005C5EB451000EB8000F2
:100BD00004EB4000D0F82911B1F91B20096800EEA0
:100BE000102AB8EEC01A00EE101A04EB8501D1F8F5
:100BF0007A18F8EEC00A00EE101A00F199010930D7
:100C0000B8EEC00A06F032FC6D1C042DDCDBD4F813
:100C1000D70300EE100ABDEEC00A10EE100A03B2B0
:100C2000D4F8A10200EE100ABDEEC00A10EE100AC0
:100C300002B2D4F86B0100EE100ABDEEC00A10EE4D
:100C4000100A01B2D4F8350000EE100ABDEEC00A59
:100C500010EE100A00B2FFF719FD2046BDE8704003
:100C6000002103F049B80000164C1548C4F87A0D6D
:100C70001548C4F8820D1548C4F87E0D1448C4F810
:100C8000860D04F6725403F04FFF2060E1680D48B2
:100C9000884703F045FF6060A068A4F6725480475F
:100CA0005FF0140006F05CFFD4F8720D0068C27AA1
:100CB000817AD4F8760D00F014FA0220F2E70000F1
:100CC000BD090008745F0020750A0008AD6C0008BB
:100CD000C10B0008014800F031BF000028050020CA
:100CE00001681823CAB2103AB2FBF3F2054B6FF356
:100CF0000901032A9B5CC36500D9091D816508466B
:100D0000704700007881000810B5014600208B690B
:100D10008A6A4FF0C07453B1B3F5005F15D072B159
:100D2000012A0CD0022A0AD0032A09D104E01AB100
:100D3000012A06D0022A03D1C96AC90100D50120BF
:100D400010BDC96AA142FAD010BD002AF7D0012A0D
:100D5000F2D0022AF3D0032AF3D010BD704700006E
:100D600007F0FEF8464E706006F0E2F9392006F012
:100D7000F7FE4FF00609434CDFF80C8107F0F0F85E
:100D8000706086F8009094F8EB00002520F0600079
:100D900084F8EB0005EBC50004EB8000C17CCA07BA
:100DA0004BD003687268B0F810C0D71ACCF30B0CA4
:100DB00067451DD98B0603D441F06001C174826080
:100DC0003278C17C02EBC20204EB8202C1F3430120
:100DD000D27CC2F34302914200D9357094F8EB10F3
:100DE00041F0600184F8EB10C06930B3804724E023
:100DF000C76821F04001D21BB0F81170B2EB171F89
:100E000003D241F02001C17417E0C1740A0602D573
:100E100041F0200101E021F02001C17441688B42C2
:100E20000BD9591A00EE101A9FED181AF8EE400A65
:100E300081EE200A10EE101A41616D1C062DA9DB0F
:100E4000E07C274640060AD5D8F8000006F022FFCD
:100E500000231A4619461846FFF736FC0CE04546B3
:100E6000D8F8000006F0A4F9032805D1F87C400664
:100E700002D4286806F09AFE142006F071FE7DE781
:100E800080010020FE6C00200400002000007A4455
:100E900070B530488AB0002400F1300580F8284051
:100EA00085F828402C4940F82C1B2C49296040F833
:100EB00028494FF480763346102205F13001EC6268
:100EC00006F03AFA334610222549281D06F034FA76
:100ED0000120CDE906400890009401940294039407
:100EE000059469461C48049400F0A4F91A4800F0DF
:100EF0002BFD0221184800F01DF90121164800F0D1
:100F000019F90E20099005906946144800F092F9ED
:100F1000124800F019FD0221104800F00BF90121E0
:100F20000E4800F007F9F1010C4800F003F93146D2
:100F30000A4800F0FFF8B100084800F0FBF8710023
:100F4000064800F0F7F8F100044800F0F3F80AB0A2
:100F500070BD0000546F0020040400202C04002009
:100F6000B47F0020C1620120704700002DE9F047E6
:100F700098B01E460F46082B16D800253249144655
:100F8000A846E9460E97884202D130222F4905E053
:100F90002F49884208D12D49302230314846FFF789
:100FA0009FFA4FF0080A23E0002018B0BDE8F08750
:100FB00009F1040006F0D5F910B18DF828801CE085
:100FC000701B082802DB8DF83CA001E08DF83C0086
:100FD0002068CDF83D006068CDF841009DF83C00E8
:100FE0000EA90444284485B209F1040006F0BFF9B3
:100FF000B542DDD39DF8280020BB4C46201D06F0ED
:10100000AAF9F8B91297CDF850800EAECDF85480F9
:1010100001270EE00EA9201D06F04EF99DF83C00B8
:1010200016900DAB721D12A9009800F095F88DF87E
:101030002870009800F020FA20B1201D06F08BF9EE
:101040000028E7D02846B0E704040020546F0020B1
:101050002C040020034A2423A2F12401024803F0B7
:101060005FBC0000F88F0020E4040020014803F07A
:1010700089BC0000E404002070B505460A2901D3AC
:10108000002070BD01EBC100124900EB400001EBF4
:101090004004363C204600F01FF884F8255000201C
:1010A00084F8270084F826004FF4005015B1012D74
:1010B0000ED109E0A4F82300132020850A206085C2
:1010C0004FF48070A08503E0A4F823000120208560
:1010D000204670BD1C9000203621FFF733BA72B64F
:1010E000FEE710B50446002923D0032921D8002AA1
:1010F0001FD0032A1DD8E06801EBC10100EB81007D
:1011000002EB42016FF02F0202EB81010144A1606A
:10111000D4E900209047012802D1A06800688047E8
:10112000A068606040688047A0688068BDE81040A3
:10113000004710BD90F82020012A07D0022A05D0D0
:10114000416A41F480214162012070470068426990
:101150000A43426100207047F0B590F820500468BF
:10116000A468012D05D0022D03D0416A41F48021ED
:101170005DE014F0406F01D1E50055D5C4F3016482
:10118000022C03D9416A41F4000150E00125A54039
:101190001D608D684FF4C0739DB1CE6835434E68B5
:1011A00045EAC605066803EB0417F5514FF4C2750E
:1011B000076805EB04150E697E51097D012905D0EC
:1011C00009E00E88CD6845EA4655EBE701684E59BF
:1011D00046F480764E511179D579567941EA056108
:1011E00095792D0445EA062529434FF4C67605680E
:1011F00006EB0416A9511178D57841EA0561957876
:1012000052782D0445EA022211434FF4C475026856
:1012100005EB04155151006803EB0411425842F0EC
:10122000010242500020F0BD416A41F400114162C8
:101230000120F0BD10B590F82020012A07D0022A25
:1012400005D0416A41F480214162012010BD3B4834
:10125000D0F8002242F00102C0F80022D0F80022AB
:1012600022F47C52C0F80022D0F800224B6A42EAF5
:101270000322C0F800220A7D02F01F0301229A40D7
:10128000D0F81C329343C0F81C32CB69B3B9D0F804
:101290000C329343C0F80C328C894B6864F31F43C3
:1012A0004C6900EBC404C4F840320C890B6864F349
:1012B0001F434C6900EBC404C4F84432CB69012BD2
:1012C00016D1D0F80C321343C0F80C320C884B689E
:1012D00064F31F434C6900EBC404C4F840320C892A
:1012E000CB6864F31F434C6900EBC404C4F8443278
:1012F0008B69002BD0F804320ED01343C0F80432AF
:101300000B69002BD0F8143208D01343C0F8143204
:10131000096A012904D008E09343EFE79343F5E716
:10132000D0F81C121143C0F81C12D0F8001221F0A2
:101330000101C0F80012002010BD00000064004050
:1013400030B504460F48104D89B0844206D12022A2
:1013500005F110016846FFF7C3F809E00B48844225
:101360000AD10949202240316846FFF7B9F83035E3
:1013700095E80F0005F080FE09B02046BDE830403A
:1013800000F0AABA04040020546F00202C040020AE
:1013900030B590F82040012C05D0022C03D0416AD2
:1013A00041F480215DE00468002955D02469A40738
:1013B00054D04FF4D874056804EB01142D5915F07E
:1013C0000405956005682D594ED0ED0855600568F7
:1013D0002C5904F00204D4604FF4DA74056804EB6D
:1013E00001142D5905F00F05156105682D59C5F338
:1013F0000725956105682C59240C54614FF4DC7263
:10140000046802EB0112A4581C700468A458240A52
:101410005C700468A458240C9C700468A258120ED6
:10142000DA704FF4DE72046802EB0112A4581C71EA
:101430000468A458240A5C710468A458240C9C71A4
:101440000468A258120EDA71006881B1016941F096
:1014500020010161002030BDE468A8E7416A41F441
:1014600000114162012030BD6D0D1560AFE7C1680C
:1014700041F02001C160EDE70246002092F8201003
:10148000012901D002290CD111688A68520100D5C6
:1014900001208A68120100D5401C8968C90000D566
:1014A000401C70472DE9F05F05460068002446693E
:1014B000D0F804908768D0F80CB0D0F810A0D0F81D
:1014C0001880F10748D0F90714D001218160B807CE
:1014D00003D5284600F066FA0CE0780702D54FF4F1
:1014E000006407E0380702D54FF4805402E0284634
:1014F00000F056FAF80516D529684FF48070886018
:10150000B80503D5284600F073FA0CE0780502D53B
:1015100044F4005407E0380502D544F4804402E066
:10152000284600F063FAF80316D529684FF4803096
:101530008860B80303D5284600F080FA0CE07803F1
:1015400002D544F4004407E0380302D544F4803463
:1015500002E0284600F070FA300707D55FEACB605A
:1015600004D52968102044F40074C86070074FF057
:10157000080707D55FEA0B7004D52868C7602846BE
:1015800000F0BBF9B00706D52868C068800702D014
:10159000284600F0B3F9700607D55FEACA6004D5A3
:1015A0002968102044F480640861B00607D55FEA1A
:1015B0000A7004D528680761284600F0C1F9F006D2
:1015C00006D528680069800702D0284600F0B9F9DE
:1015D000B00308D55FEAC96005D5296810204860C6
:1015E000284600F0AFF9F00307D55FEA097004D58B
:1015F00028684760284600F045FA300446D55FEA7F
:10160000497040D5F00504D55FEAC87001D044F0B8
:101610000104B00504D55FEA887001D544F00204E6
:10162000700504D55FEA487001D544F00404300524
:1016300029D518F0700F26D008F07000402815D07A
:1016400006DC102809D020280AD0302816D10AE05C
:1016500050280ED0602811D10EE044F008040DE0AF
:1016600044F010040AE044F0200407E044F0400491
:1016700004E044F0800401E044F480742868816947
:1016800021F070018161296804204860002C05D098
:10169000686A204368622846FFF752FEBDE8F09F63
:1016A00070B5040003D094F8200010B104E00120CC
:1016B00070BD204600F082F82068016841F0010109
:1016C000016000F085FC0546052604E000F080FC82
:1016D000401B0A2811D820684068C007F6D020684F
:1016E000016821F00201016000F072FC05460BE088
:1016F00000F06EFC401B0A2806D9606A40F40030F6
:10170000606284F82060D2E7206840688007EFD4E8
:10171000207E0128206801683DD021F08001016011
:10172000607E01282068016838D021F04001016006
:10173000A07E01282068016833D021F020010160DB
:10174000E07E0128206801682ED041F01001016080
:10175000207F01282068016829D021F0080101605C
:10176000607F01282068016824D021F00401016015
:10177000D4E902010843D4E9041211430843616823
:10178000491E08432168C86100206062012084F876
:101790002000002070BD41F08001C0E741F0400111
:1017A000C5E741F02001CAE721F01001CFE741F081
:1017B0000801D4E741F00401D9E70000F0B587B093
:1017C000044614216846FEF7DFFE3E4B3E48DFF834
:1017D000F0E01968D4F800C03B4A03250226092727
:1017E00010300024491CF4452AD11960012907D181
:1017F000016841F000710160006800F00070059020
:10180000106840F0080010601068CDE9005600F044
:101810000800CDE9047069462C48CDE9024500F086
:10182000D9FA00220521132000F070FC132000F0EB
:101830005FFC00220521142000F068FC14203AE02F
:10184000DFF88CE0F44538D1D0F800C04CF0806C63
:10185000C0F800C0D0F800C001290CF0806CCDF8B1
:1018600014C0196007D1016841F00071016000687F
:1018700000F000700590106840F0020010601068E1
:1018800002AB00F0020005906020CDE9000683E87D
:10189000B00069460F4800F09DFA002205213F2064
:1018A00000F034FC3F2000F023FC00220521402002
:1018B00000F02CFC402000F01BFC07B0F0BD000045
:1018C000006400401000002030380240000C02404C
:1018D000006800400004024090F820200021012A06
:1018E00008D0022A06D0416A41F4802141620121D8
:1018F0000846704700224262FAE7704710B58AB086
:10190000044607AB6A460021FFF742FD09488442BE
:1019100006D1094809E007A9684690470AB010BDFA
:1019200006488442FAD104483030C26A002AF2D113
:10193000F4E7000004040020546F00202C04002071
:10194000704770477047000070B5044690F820005B
:10195000012804D0606A40F40020606218E0022090
:1019600084F820002068016821F00101016000F086
:101970002FFB05460EE000BF00F02AFB401B0A28A3
:1019800008D9606A40F400306062052084F82000C5
:10199000012070BD20684068C007EDD1606270BD55
:1019A0007047000010B50E490E4C88B0884206D131
:1019B000202204F110016846FEF792FD09E00A4971
:1019C00088420AD10749202240316846FEF788FD47
:1019D000303494E80F0005F04FFB08B010BD000054
:1019E00004040020546F00202C04002070470000E5
:1019F00010B50E490E4C88B0884206D1202204F161
:101A000010016846FEF76CFD09E00A4988420AD1D8
:101A10000749202240316846FEF762FD303494E8E1
:101A20000F0005F029FB08B010BD000004040020E1
:101A3000546F00202C0400207047000010B50E49A0
:101A40000E4C88B0884206D1202204F1100168466D
:101A5000FEF746FD09E00A4988420AD107492022DB
:101A600040316846FEF73CFD303494E80F0005F045
:101A700003FB08B010BD000004040020546F0020D8
:101A80002C04002070472DE9F0410446876D00F0DA
:101A90009FFA064694F835000025022806D08020DB
:101AA000606584F834500120BDE8F0812068016849
:101AB00021F0160101602068416921F08001416137
:101AC000206C08B9A06C20B12068016821F00801E1
:101AD00001602068016821F0010101600CE000F064
:101AE00077FA801B052807D920206065032084F839
:101AF000350084F83450D7E720680068C007EED17D
:101B000094F85C103F208840B860012084F83500CC
:101B100084F834500020C7E790F83510022903D02C
:101B20008021416501207047052180F8351000684B
:101B3000016821F001010160002070472DE9F843A0
:101B400004464FF00009CDF8009063484FF4165159
:101B5000A56D0068B0FBF1F72E6894F85C100820C2
:101B600000FA01F131420FD021680A6852070BD503
:101B70000A6822F004020A6094F85C108840A860A9
:101B8000606D40F00100606594F85C104FF0010852
:101B900008FA01F0304208D021684969090604D5E5
:101BA000A860606D40F00200606594F85C1004204D
:101BB0008840304208D021680968890704D5A860A8
:101BC000606D40F00400606594F85C10102088405F
:101BD000304218D021680968090714D5A860206828
:101BE0000168490304D50068000308D5A16C07E02B
:101BF0000168C90503D4016821F008010160216C66
:101C000009B12046884794F85C1020208840304273
:101C100031D021680968C9062DD5A86094F835002F
:101C200005282068016806D0490347D500680003ED
:101C30001DD4616C1CE021F016010160206841692F
:101C400021F080014161206C08B9A06C20B12068AE
:101C5000016821F00801016094F85C103F20884081
:101C6000A86084F8358084F83490216D1FE0E16B22
:101C700009B120468847606D00282BD0606DC007F1
:101C800014D0052084F835002068016821F0010196
:101C900001600098401C0090B84203D8206800689A
:101CA000C007F6D184F8358084F83490E16C0029BF
:101CB00010D001B02046BDE8F04308470168C905CF
:101CC000D5D4016821F01001016084F8358084F8D2
:101CD0003490CCE7BDE8F883840000202DE9F04182
:101CE000044600F075F906465CB1022084F8350020
:101CF000002584F834502068016821F0010101605A
:101D00000DE00120BDE8F08100F062F9801B05289C
:101D100005D920206065032084F83500F2E72068AB
:101D20000068C007F0D12268116820480140D4E95A
:101D300001031843D4E90336334318436369184356
:101D4000A3691843E3691843236A18430843616A87
:101D5000042903D1D4E90B13194308431060206808
:101D60004069666A20F0070130460E4301270428C7
:101D70000CD1A06A0643E06A40B12046FEF7C4FFDA
:101D800020B14020606584F83570BAE7206846616C
:101D90002046FEF7A5FF94F85C203F21914081602A
:101DA000656584F835700020ACE700003F8010F0D6
:101DB00070B5044600F00CF90546601C02D00448DA
:101DC0000078044400F004F9401BA042FAD370BD2F
:101DD000780000202DE9F84FDFF8BCA10022012592
:101DE00003264FF00F090AF1040BAAF1040E00BFFD
:101DF0000B6805FA02F42340A34270D10F7907F073
:101E00000307012F01D0022F16D187684FEA42083D
:101E100006FA08FC27EA0C07D1F80CC00CFA08FCFB
:101E20004CEA070CC0F808C04768A7430C79C4F314
:101E3000001494403C4344600C79E443A4070AD066
:101E4000C4684FEA420C06FA0CF7BC438F6807FAE5
:101E50000CF72743C7600C7904F00304022C12D15D
:101E6000D40800EB840CDCF820405707FF0E09FA79
:101E700007F824EA0804D1F8108008FA07F848EABD
:101E80000408CCF8208004684FEA420C06FA0CF7EC
:101E9000BC430F7907F0030707FA0CF727430760E5
:101EA0004C6814F4403F70D03C4C276847F480479E
:101EB0002760246822F0030704F480440094384C1F
:101EC00007EB040CDCF8084897074FEA177809FA83
:101ED00008F7BC43334FB84202D1002724E054E056
:101EE000314FB84201D101271EE0304FB84201D135
:101EF000022719E02E4FB84201D1032714E02D4FDD
:101F0000B84201D104270FE02B4FB84201D1052779
:101F10000AE02A4FB84201D1062705E0284FB8420F
:101F200001D1072700E0082707FA08F72743CCF874
:101F30000878DAF800405746D1F804C09C435FEABD
:101F4000CC2C00D51C433C60DBF800405F46D1F848
:101F500004C09C435FEA8C2C00D51C433C60DEF837
:101F600000407746D1F804C09C435FEA8C3C00D522
:101F70001C433C60084F083F3C68D1F804C09C43B8
:101F80005FEACC3C00D51C433C60521C102AFFF495
:101F90002FAFBDE8F88F0000083C014044380240F4
:101FA00000300140000002400004024000080240EE
:101FB000000C0240001002400014024000180240D1
:101FC000001C02400AB1816170470904FBE7000070
:101FD000014880687047000078000020024881684E
:101FE0000278114481607047780000200B4810B5DA
:101FF000016841F400710160016841F48061016091
:10200000016841F480710160032000F09FF80F2007
:1020100000F006F800F050F8002010BD003C02402F
:1020200030B50546204887B00024016841F0010121
:102030000160006806A900F00100009001A800F00E
:102040006BFE0498B0B100F08DFE400017494FF0D0
:102050008042B0FBF1F11648491E026040F2E732BF
:10206000C0E90324C0E90114846101F0F7F8040019
:1020700003D015E000F076FEE8E70D4801F030F9F6
:1020800004000DD11C2000F033F8102D07D20022DF
:1020900029461C2000F03AF80648056000E00124BB
:1020A00007B0204630BD00004038024040420F00DB
:1020B000880500207C0000200C4882B0016841F4B3
:1020C00080410160006800F4804000900748001FD4
:1020D000016841F0805101600068002200F08050EA
:1020E00000900F21901E02B000F010B8443802405A
:1020F000002809DB00F01F02012191404009800007
:1021000000F1E020C0F8001170470000F0B40E4B61
:102110001B680C46C3F30223C3F10705042D00D945
:102120000425191D072901D2002300E0DB1E01262A
:1021300006FA05F1491E214099409E40761E164040
:102140003143F0BC04F078BF0CED00E0064900F02C
:10215000070208684FF6FF03184040EA0220034ACE
:1021600010430860704700000CED00E00000FA0525
:1021700070470068416200207047F0B50368586AF4
:1021800039B19C6A4FF4827600EB144400204D1E56
:102190000AE040EA024098620FE006EB8007DF5950
:1021A000401C04EB1744C0B2A842F6D344EA0240F4
:1021B0004FF4807202EB810158500020F0BDD0F83E
:1021C000080503F073BC01EBC10200EB8202D0F8FA
:1021D0000805D26C03F0C8BB01EBC10200EB820220
:1021E000D0F80805D2F88C2203F019BCD0F8080505
:1021F00003F05EBC0A0601F00F0101EBC10100EB28
:10220000810101D53C3101E001F51F71006804F046
:1022100093BB70B504460B0601F00F0000EBC00144
:1022200004EB81014FF001024FF0000503D581F866
:102230003D203C3103E081F87D5201F51F710870AB
:1022400094F8BC04012808D084F8BC24206804F069
:102250002DF884F8BC54002070BD022070BD70B50C
:10226000044601F00F006268904201D9012070BD60
:102270000B0601F00F0101EBC10104EB81014FF0EE
:1022800001024FF0000503D581F83D203C3103E009
:1022900081F87D5201F51F718D70087094F8BC04AF
:1022A000012808D084F8BC24206804F0FBF984F8E5
:1022B000BC54002070BD022070BD01F00F0101EB85
:1022C000C10100EB8100D0F89C0270472DE9F0417C
:1022D00004460F0601F00F0000EBC00104EB810182
:1022E0004FF001064FF0000503D581F83D603C3109
:1022F00003E081F87D5201F51F710870CA600B710F
:102300004A7802B10881022B00D14D7194F8BC04C7
:10231000012809D084F8BC64206803F01FFF284618
:1023200084F8BC54BDE8F0810220FBE770B50C4690
:1023300001F00F0505EBC50100EB8101C1F89432F6
:10234000C1F88C220023C1F89C3281F87D3281F8DB
:102350007C52036901F51F71012B00D14A612207EC
:10236000027C006803D004F0F5F9002070BD04F091
:10237000DFF8FAE770B504460D4601F00F0061681A
:10238000884201D9012070BD29064FF000064FF0A8
:10239000010207D500EBC00104EB810181F83D206B
:1023A0003C3107E005EBC50104EB810181F87D625A
:1023B00001F51F718A70087094F8BC04012807D0D9
:1023C00084F8BC24206804F099F9280702D007E0BB
:1023D000022070BD217C04F2C442206804F036F96A
:1023E00084F8BC64002070BD70B50C4601F00F0588
:1023F00005EBC50100EB81014B65CA640023CB6589
:10240000012381F83D3001F83C5F0369012B00D1C5
:102410004A612207027C006803D004F09BF9002087
:1024200070BD04F085F8FAE72DE9FC5F0568044605
:10243000284604F022FB00287DD1206804F049FBE7
:10244000002878D0D5F80808C0F30D20C4F8FC04A3
:10245000206804F03EFB800704D52068416901F044
:1024600002014161206804F034FBC10604F2C4405B
:10247000009034D52068816921F0100181612F6AB4
:1024800007F00F0000EBC00004EB8006C7F34340E9
:1024900006F51F76022802D0062811D01AE047F66A
:1024A000F070074216D0C7F30A1217462846316962
:1024B00004F013FB306938443061306A384408E076
:1024C00008222846009904F008FB306AC7F30A1175
:1024D000084430622068816941F010018161206800
:1024E00004F0F7FA00034FF0080B4FF0000A4FF02A
:1024F00001097CD50026206804F0CAFA074674E07A
:10250000F80770D0F1B2206804F0DBFA8046C0070B
:1025100007D005EB4611C1F8089B3146204601F073
:1025200009FF5FEA087024D505EB4611C1F808BB26
:102530002068016C00E025E200EB46100191D0F824
:10254000082BFC4B994205D9110403D54FF40041E7
:10255000C0F8081B204600F005FBF64901988842A8
:1025600007D92069012804D120680121009A04F0CC
:102570006DF85FEAC86004D505EB46111020C1F87C
:10258000080B5FEA88701DD56869000605D5D5F887
:10259000040840F48061C5F8041806EBC60004EB9B
:1025A000800090F87F1200F51F70012905D180F896
:1025B00003A0F1B2204600F0EBF905EB4611022032
:1025C000C1F8080B5FEA886004D505EB46102021AE
:1025D000C0F8081B5FEA884005D505EB46104FF4AC
:1025E0000051C0F8081B7F08761C002F88D1206896
:1025F00004F06FFA40036FD5206804F042FA0746F2
:10260000002667E0F80763D0F1B2206804F047FACB
:102610008046C00723D006F00F0209FA02F0D5F871
:1026200034288243C5F8342805EB4610C0F80899D1
:10263000206901280FD106EBC60004EB8000D0E929
:1026400012211144C16436B9606D20B9206801219E
:10265000009A03F0FBFFF1B22046FFF7B4FD5FEAFA
:10266000087003D505EB4611C1F808B95FEAC860E8
:1026700004D505EB46111020C1F808095FEA48604F
:1026800004D505EB46104021C0F808195FEA8870B0
:1026900017D53146284604F0C3F906EBC60004EB13
:1026A000800090F83F103C30012905D180F803A04C
:1026B000F1B2204600F068F905EB46110220C1F89E
:1026C00008095FEA086003D53146204601F098FE0C
:1026D0007F08761C002F95D1206804F0FAF90028B5
:1026E00011DAD5F8040820F00101C5F8041894F8AF
:1026F000F40401282BD0204600F018FA2068416924
:1027000001F000414161206804F0E3F900050BD5B8
:10271000D5F80808C00702D0204600F04BFA206820
:10272000416901F400614161206804F0D2F9C004FC
:1027300066D5D5F8040820F00100C5F8040810217A
:10274000206804F06DF900214FF67F321FE084F815
:10275000F4A400212046FFF70BFDCFE705EB411065
:10276000C0F80829D0F8003923F40013C0F8003964
:10277000C0F8082BD0F8003B23F40013C0F8003B4E
:10278000D0F8003B43F00063C0F8003B491C606890
:102790008842E3D8D5F81C0840F00111C5F81C1890
:1027A000206B002828460DD0D0F8840840F00B019B
:1027B000C5F88418D5F8440840F00B012846C5F840
:1027C00044180DE0D0F8140842F22B010843C5F874
:1027D0001408D5F8100840F00B012846C5F8101869
:1027E000D0F8000820F4FE61C5F80018217C2068AC
:1027F000009A03F02BFF2068416901F48051416188
:10280000206804F066F9800415D5206803F0E6FC22
:10281000206804F025F9E06000F09EFA0146227B72
:10282000206804F0B9F9204600F06AF9206841698F
:1028300001F400514161206804F04BF9000707D50D
:10284000204600F077F92068416901F008014161F4
:10285000206804F03EF9000616D5A86920F0800033
:10286000A86101260DE000BF06EBC60004EB800066
:1028700090F87F02012803D1F1B22046FFF7BAFC9D
:10288000761C6068B042EFD8206804F022F9C002DC
:1028900021D501264F4616E005EB4610D0F8001969
:1028A00006EBC60004EB800090F84020012A09D115
:1028B000002907DA80F83F70F0B240F0800120462E
:1028C000FFF798FC761C6068B042E5D82068416943
:1028D00001F480114161206804F0FBF8800234D5D6
:1028E00001204B4629E000BF05EB4011D1F8001B49
:1028F00000EBC00204EB820696F88022012A1BD16D
:10290000002919DA94F8FC2401F4803102F0010264
:10291000914211D186F87F32A96941F08002AA6103
:102920006969090608D4D5F8040840F40070C5F8B0
:10293000040805E00A30544F401C61688142D3D836
:102940002068416901F400114161206804F0C1F878
:10295000400007D52046FFF732FC2068416901F0AE
:1029600080414161206804F0B4F840070AD520682E
:102970004568680702D52046FFF738FC20684168A3
:1029800029434160BDE8FC9FD0F8080503F0E4B896
:10299000D0F8080503F0F4B82DE9F0418AB004003E
:1029A00005D094F8BD042668002520B108E0012078
:1029B0000AB0BDE8F08184F8BC54204600F05EF80F
:1029C000032084F8BD04F06BC00500D425612068A5
:1029D00003F0A8FD04F11001282288466846FDF79F
:1029E0007FFD94E80F0003F007FC0226C8BB00211E
:1029F000206804F091F8002001270EE000EBC001F0
:102A000004EB810181F83D7001F83C0F08810D71E4
:102A1000CD600D61401CC0B28D6161688142EDD80E
:102A2000002011E000EBC00104EB810181F87D5230
:102A300081F87C0281F88052C1F88852C1F88C522A
:102A4000401CC0B2C1F8945261688142EAD8282281
:102A500041466846FDF744FD94E80F0003F0A8FCEA
:102A600010B184F8BD64A2E784F8385084F8BD74CE
:102A7000206803F08FFC00209AE7000010B586B0B4
:102A8000044614216846FDF77FFD2068B0F1A04F91
:102A90002FD119480021026842F00102026000684B
:102AA00000F0010005904FF4E05000900220CDE9C5
:102AB0000101032003900A20049069460F48FFF7A4
:102AC00089F90D48001D016841F0800101600A4844
:102AD0001430016841F4804101600068002200F474
:102AE0008040059005214320FFF710FB4320FFF7AE
:102AF000FFFA06B010BD000030380240000002406E
:102B000070B50446C068012570B1022801D0FEF7F7
:102B1000E6FA2946D4F8080503F0A0F8D4F8080529
:102B2000BDE8704003F055B80025F2E7D0F808057D
:102B300003F07DB8D0F8080503F083B810B504465B
:102B400090F8BC0401280BD0012084F8BC0484F860
:102B50003810206804F00EF8002084F8BC0410BD82
:102B6000022010BDD0F8082500F2C441104603F041
:102B700081B810B50446006894F8BC14012906D049
:102B8000012184F8BC14A16A012902D008E00220C6
:102B900010BDA169012903D0816B41F480318163AB
:102BA000206803F018FF206803F0E6FB002084F89B
:102BB000BC0410BD10B50446D0F8080503F09CF81D
:102BC0002068D0F8001E41F00101C0F8001E206A04
:102BD000002804D00248016841F00601016010BDE0
:102BE00010ED00E02DE9F0470E46050065D0DFF856
:102BF0001481D8F80000F7B200F00700B04207D205
:102C000088F80070D8F8000000F00700B04254D1F6
:102C100028683D4C810712D5400703D5206840F451
:102C2000E05020602878000703D5206840F4604019
:102C300020602068A96820F0F00008432060287810
:102C4000C0072DD0304968680839012812D0022801
:102C500013D0032811D00968890700292DDA2168CB
:102C600021F0030101432160FFF7B2F9814641F2EF
:102C7000883A0EE009688903EFE709688901ECE703
:102C8000FFF7A6F9A0EB0901514502D90320BDE8E1
:102C9000F0872068696800F00C00B0EB810FEFD17D
:102CA000D8F80010404601F00701B14207D907707B
:102CB000006800F00700B04201D00120E7E7287863
:102CC000400705D52068E96820F4E05008432060FB
:102CD0002878000706D52068296920F4604040EA7A
:102CE000C100206000F05EF82168084AC1F30311BA
:102CF000515CC8400649086006480068FFF790F933
:102D00000020C4E7003C02400838024080810008EF
:102D1000840000207C0000200F2202600C4A13680F
:102D200003F003034360136803F0F0038360136848
:102D300003F4E053C36012684FF4E05303EAD20295
:102D400002610448006800F0070008607047000056
:102D500008380240003C024001480068704700000B
:102D6000840000200448054900680968044AC1F34A
:102D70008221515CC840704784000020083802401E
:102D8000908100080448054900680968044AC1F3B5
:102D90004231515CC840704784000020083802402E
:102DA00090810008154810B5006810F00C02144816
:102DB00013D01449042A0FD0082A0ED10F4C241F17
:102DC0002268236802F03F025B0207D52068C0F347
:102DD0008810A0FB010106E0084610BD2168C1F380
:102DE0008811A1FB00010023FDF7BEFA2168C1F3A1
:102DF0000141491C4900B0FBF1F010BD0838024008
:102E00000024F400001BB7002DE9F84F04006ED039
:102E10002078DFF84C93C007A9F104054AD009F1E6
:102E200004000168C1F38101012908D00068C0F3E2
:102E3000810002280AD1D9F80000400206D528688E
:102E4000800337D560680028E1D033E06068B0F5D2
:102E5000803F10D0B0F5A02F286810D020F480302B
:102E60002860286820F4802028606068A8B1FFF7F7
:102E7000AFF806460DE0286840F48030F4E740F4EF
:102E800080202860F7E700BFFFF7A2F8801B6428C6
:102E900073D828688003F7D50CE0FFF799F8064649
:102EA00005E000BFFFF794F8801B6428F0D828687D
:102EB0008003F7D42078DFF8AC8280074FF0000A57
:102EC0003ED5A748001D016811F00C0F08D000681E
:102ED000C0F3810002280BD1D9F80000400207D4CA
:102EE0002868800716D5E068012800D112E033E198
:102EF000E068B8B10120C8F80000FFF769F806469D
:102F000005E000BFFFF764F8801B0228C0D82868DE
:102F10008007F7D52868216920F0F80040EAC10051
:102F200028600DE0C8F800A0FFF752F8064604E05C
:102F3000FFF74EF8801B02281FD828688007F7D4B7
:102F40002078000722D5864F87486169703771B1B4
:102F500001210160FFF73CF8064604E0FFF738F86E
:102F6000801B022809D838688007F7D50EE0C0F822
:102F700000A0FFF72DF8064605E082E0FFF728F8ED
:102F8000801B02287DD838688007F7D42078400756
:102F900068D5DFF8CCB100270BF13C0BDBF8000063
:102FA000C0000BD4DBF8001041F08051CBF80010CA
:102FB000DBF80000012700F0805000906B4E306875
:102FC000C00510D4306840F480703060FFF700F81E
:102FD000009005E0FEF7FCFF0099401A022850D847
:102FE0003068C005F6D55E4EA0686C3601280FD05B
:102FF0000528306810D020F001003060306820F0E3
:1030000004003060A068B8B1FEF7E2FF00900FE066
:10301000306840F00100F4E740F004003060F7E76A
:10302000FEF7D6FF0099411A41F28830814266D8F6
:1030300030688007F4D50EE0FEF7CAFF009007E085
:10304000FEF7C6FF0099411A41F28830814256D8F6
:1030500030688007F4D42FB1DBF8001021F08051E4
:10306000CBF80010A069C8B33D49091D0968C1F338
:10307000810102294AD00228504607D0C8F86000D2
:1030800000E03CE0FEF7A4FF04463BE04746C8F8FA
:103090006000FEF79DFF064605E000BFFEF798FFC3
:1030A000801B02282BD828688001F7D4D4E90701B7
:1030B0000843A16A2E4A490802EB0141626A41EACB
:1030C0008211084394F82C1040EA0161C9F80010FD
:1030D00001203866FEF77CFF044606E03EE000BFB4
:1030E000FEF776FF001B022809D828688001F7D573
:1030F00034E000BFFEF76CFF001B022802D903205A
:10310000BDE8F88F28688001F4D427E00128F7D0C3
:10311000D9F80000E26900F4800191421CD1226AD2
:1031200000F03F01914217D147F6C071626A014039
:10313000B1EB821F10D1A26A4FF0FF3300F440318F
:1031400003EB5202B1EB024F06D194F82C1000F0C1
:103150007060B0EB016F01D00120D1E70020CFE714
:103160000438024000004742800E47420070004091
:103170000000FFFF7047704710B590F83C20012A0F
:1031800022D0012280F83C20CA688C6822F4407268
:1031900022434C6822F4806222430C6822F40062CD
:1031A00022430C6922F4805222434C6922F40052DB
:1031B0002243C969002322F480420A4301684A6419
:1031C00080F83C30002010BD022010BD70B590F892
:1031D0003C20012A32D0012480F83C40022280F8B1
:1031E0003D2003685A689D6822F070060A683243E1
:1031F0005A60134B02689A4214D0B2F1804F11D03A
:10320000104B9A420ED0104B9A420BD00F4B9A4261
:1032100008D00F4B9A4205D00E4B9A4202D00E4B6B
:103220009A4204D1496825F080031943916080F8DF
:103230003D40002180F83C10084670BD022070BD62
:10324000000001400004004000080040000C004065
:1032500000040140004001400018004010B5040087
:1032600003D094F83D0010B107E0012010BD00200C
:1032700084F83C00204600F01FF8022084F83D004E
:10328000211D206801F0E2FC012084F8460084F84A
:103290003E0084F83F0084F8400084F8410084F840
:1032A000420084F8430084F8440084F8450084F820
:1032B0003D00002010BD000008B5006806498842A6
:1032C00008D10648016841F004010160006800F07F
:1032D0000400009008BD0000000800404038024093
:1032E00090F83D10012901D001207047022180F89B
:1032F0003D100168CA6842F00102CA6000681149C5
:10330000884214D0B0F1804F11D00F4988420ED0BE
:103310000E4988420BD00E49884208D00D49884298
:1033200005D00D49884202D00C49884204D18168F9
:1033300001F00701062903D0016841F00101016095
:1033400000207047000001400004004000080040D9
:10335000000C004000040140004001400018004003
:1033600070B5044690F83C000025012817D00126CE
:1033700084F83C60022084F83D002068826822F0D6
:10338000770222F47F4282600868502838D00DDC32
:1033900020284FD005DC90B3102811D14AE002203C
:1033A00070BD302846D040280AD13BE060282FD09D
:1033B00070280DD0B0F5805F03D0B0F5005F12D05B
:1033C000012584F83D60002084F83C00284670BD4B
:1033D000CB68D1E90121206801F09CFC206881685C
:1033E00041F0770109E0CB68D1E90121206801F0C3
:1033F00091FC2068816841F480418160E1E719E037
:10340000CA684968206801F059FD5021206806E02B
:10341000CA684968206801F062FD6021206801F0F7
:1034200083FCCEE7CA684968206801F047FD402167
:103430002068F4E7226801461046F0E7704770B54F
:103440000446006801694FF00005C943890715D497
:10345000C168C943890711D4E91E016101202077A1
:10346000206880698007204602D0FFF7E7FF04E06C
:1034700000F0DAF8204600F07FF92577206801692E
:10348000C943490717D4C168C943490713D46FF02A
:1034900004010161022020772068806910F4407FD8
:1034A000204602D0FFF7CAFF04E000F0BDF8204636
:1034B00000F062F9257720680169C943090716D42D
:1034C000C168C943090712D46FF0080101610420E3
:1034D00020772068C0698007204602D0FFF7AEFF42
:1034E00004E000F0A1F8204600F046F925772068B6
:1034F0000169C943C90617D4C168C943C90613D4B1
:103500006FF010010161082020772068C06910F475
:10351000407F204602D0FFF791FF04E000F084F8DE
:10352000204600F029F9257720680169C943C907B9
:1035300008D1C168C943C90704D1891E0161204669
:1035400000F01BF920680169C943090609D4C16864
:10355000C943090605D46FF0800101612046FFF7D9
:1035600009FE20680169C943490609D4C168C943F5
:10357000490605D46FF040010161204600F004F9CE
:1035800020680169C94389060BD4C168C94389060B
:1035900007D46FF0200101612046BDE87040FFF7BD
:1035A000EABD70BD10B586B0044614216846FCF72C
:1035B000EBFF2368174C002117480222A34211D1C8
:1035C000036843F010030360006800F010000590EA
:1035D00010020090CDE901210120CDE903106946D8
:1035E0000E4812E00E4CA34211D1036843F00803C9
:1035F0000360006800F00800059020140090CDE9F9
:103600000121CDE9031269460648FEF7E3FB06B047
:1036100010BD0000000001403038024000100240A0
:1036200000080040000C0240704770B5044690F856
:103630003C0000260D4601280FD0012084F83C00F4
:103640006AB1042A1DD0082A2FD00C2A3FD00126A7
:10365000002084F83C00304670BD022070BD206818
:1036600001F06AFB2068816941F0080181612068EE
:10367000816921F004018161206881692A6911430F
:1036800011E0206801F088FB2068816941F4006145
:1036900081612068816921F480618161206881698C
:1036A0002A6941EA02218161D2E7206801F0AAFB80
:1036B0002068C16941F00801C1612068C16921F039
:1036C0000401C1612068C1692A69114311E02068C1
:1036D00001F0CCFB2068C16941F40061C161206840
:1036E000C16921F48061C1612068C1692A6941EA28
:1036F0000221C161ACE710B5040003D094F83D008D
:1037000010B107E0012010BD002084F83C002046E5
:1037100000F01EF8022084F83D00211D206801F011
:1037200095FA012084F8460084F83E0084F83F00B2
:1037300084F8400084F8410084F8420084F8430093
:1037400084F8440084F8450084F83D00002010BD52
:1037500008B500680649884208D10648016841F06A
:1037600001010160006800F00100009008BD000048
:10377000000001404438024070470068B0F1804FBB
:1037800001D1FEF72BBC70477047704770470000AF
:10379000F8B5016804460868CA684B6910F00F0F55
:1037A0004FF0000559D003F0010602F4907737433B
:1037B00065D0C10705D0D10503D5216C41F00101C9
:1037C0002164410705D5D90703D0216C41F00201DE
:1037D0002164810705D5D90703D0216C41F004018C
:1037E0002164010707D502F02001314303D0216C89
:1037F00041F008012164216C00293AD0800604D5EB
:10380000900602D5204601F0ABFB20684069216C90
:10381000C0F38010090700D460B3204601F079FBA3
:1038200020684069400621D52068143050E8001F08
:1038300021F0400140E80012002AF5D1A06BA8B1A8
:103840006C490165A06BFEF767F9002811D0A06BE9
:10385000016D01B0BDE8F040084783060FD593061F
:103860000DD52046BDE8F84001F07ABB2046FFF7B1
:103870008DFFF8BD2046FFF789FF2564F8BD266B54
:103880002023012E79D1C60677D5D60675D50868CE
:10389000486800904869400640D5A16B08684068B8
:1038A0000004000CEAD0A28D8242E7D9E085C86905
:1038B000B0F5807F2DD020680C3050E8001F21F437
:1038C000807140E80012002AF5D12068143050E8D9
:1038D000001F21F0010140E80012002AF5D1206804
:1038E000143050E8001F21F0400140E80012002A87
:1038F000F5D184F83E30256320680C3050E8001F75
:1039000021F0100140E80012002AF5D1A06BFEF76B
:10391000BAF8A08DE18D401A81B229E0A08DE18D29
:10392000401A81B2E08D0028A8D00029A6D02068D6
:103930000C3050E8002F22F4907240E80026002E50
:10394000F5D12068143050E8002F22F0010240E841
:103950000026002EF5D184F83E30256320680C3017
:1039600050E8002F22F0100240E80023002BF5D190
:103970002046FFF70AFFF8BDFFE705062BD5150621
:1039800029D594F83D002128F5D1A068B0F5805FD5
:1039900001D12069B0B1206A411C21622168007800
:1039A0004860E08C401E0004000CE084E3D12068F5
:1039B000C16821F08001C1602068C16841F0400108
:1039C000C160D8E7206A0088C0F308004860206A18
:1039D000801C2062E5E74006CDD55006CBD5CA68ED
:1039E000204622F04002CA6084F83D3000F091F891
:1039F000C1E70000034F000870B5040004D094F83C
:103A00003D00002510B106E0012070BD84F83C5057
:103A1000204600F023F8242084F83D002068C16887
:103A200021F40051C160204601F0FAFA20680169D2
:103A300021F4904101612068416921F02A0141612E
:103A40002068C16841F40051C1602564202084F8D9
:103A50003D0084F83E00002070BD000070B586B0C7
:103A6000064614216846FCF78FFD244930688842D9
:103A700041D123480025016841F48021016000689C
:103A800000F4802005901E481038016841F00401C0
:103A900001600068694600F0040005904FF4406042
:103AA00000900220CDE90105032003900720049037
:103AB0001448FEF78FF9154C134820604FF0006052
:103AC000C4E901054014C4E903506561C001A56162
:103AD000C4E9075020466562FEF700F908B1FDF71A
:103AE000FEFAB463002205212720A663FEF70EFB31
:103AF0002720FEF7FDFA06B070BD00000048004028
:103B0000403802400008024028600240280500209A
:103B1000704770470021014800F0EEB8745F002044
:103B2000034902488968886070470000153B000817
:103B3000C85E00207047FEE7034902488968886034
:103B400070470000610B0008C85E0020704700004D
:103B5000F0B500230A24302537261F4611E000BFA8
:103B6000B4EB107F02D905EB107C01E006EB107C72
:103B700001F813C001EB430C00015B1C8CF80170D1
:103B8000DBB29342ECD3F0BD054900EBC00001EB82
:103B90008000C07C400601D400207047012070479F
:103BA000FE6C002070477047144810B5D0F8721DA5
:103BB00091F85621D2071AD10968B1F90C20A2EB6D
:103BC000021200EE102AB1F91620B1F91410B8EE65
:103BD000C01A524200EE102A4942D0F8822DF8EE67
:103BE000C00A00EE101A0A21B8EEC00A904700225F
:103BF000BDE8104011460148FCF7B6BE745F0020D6
:103C00002DE9F047394B002108461E68B28B540558
:103C10000AD59C88640507D493F8564104F0010442
:103C2000C4F1010483F85641D5074FF425794FF0CC
:103C3000960A4FF4FA740FD093F85651ED0709D154
:103C4000D50602D569F30F0106E0950602D56AF3A1
:103C50000F0101E064F30F01254F264D5FEA8278E2
:103C60006FF0950C12D593F856815FEAC8780BD1A6
:103C70005FEAC26802D567F31F4107E05FEA826826
:103C800002D56CF31F4101E065F31F4101EB2141B7
:103C9000B18251070FD593F85611C90709D1D10642
:103CA00002D567F30F0006E0910602D56CF30F0012
:103CB00001E065F30F0011070FD593F85611C907FE
:103CC00009D1D10602D569F31F4006E0910602D55D
:103CD0006AF31F4001E064F31F40196800EB2040C5
:103CE000C8821868808B9880BDE8F087FA6D002044
:103CF0006CFDFFFF0CFEFFFF70B50B00D0F8B31991
:103D00002D4C05460A6804D0D018206040426060FF
:103D10000FE02068002800DA4042131E00DA534208
:103D2000C01A00D54042B0F5183F02DD5042C4E948
:103D30000020B1F91B0005F6231100EE100A05F66C
:103D40009300B8EEC01A00EE102AF8EEC00A94ED07
:103D5000000AB8EEC00A03F089FBD5F8E90AB0F909
:103D60001B10006800EE101A05F65921B8EEC01AB3
:103D700000EE100A05F6C910F8EEC00A94ED010A2B
:103D8000B8EEC00A03F072FBD5F8F509002100EE89
:103D9000100ABDEEC00A10EE100A03B2D5F8BF0833
:103DA000BDE8704000EE100ABDEEC00A10EE100A29
:103DB00002B20846FCF788BC8C0100200F4810B501
:103DC0000D4901600321416000214FF41022816000
:103DD000C0E903124FF40012426101764176817608
:103DE000C17601774177FDF75BFC002803D0BDE881
:103DF0001040FDF774B910BD0064004004040020B9
:103E0000104810B50E4901600321416000214FF4B4
:103E100010228160C0E903124FF400124261017662
:103E2000012242768276C17601774177FDF738FC30
:103E3000002803D0BDE81040FDF751B910BD0000C7
:103E4000006800402C040020094808B5016841F4CE
:103E5000001101600068002200F4001000900521AC
:103E60000C20FEF753F9BDE808400C20FEF740B9DE
:103E70003038024010B59CB01C2216496846FCF749
:103E80002FFB0021684603F018FB134C11491C223C
:103E900020601C3107A8FCF723FB002107A803F0D2
:103EA0000CFB0C4960601C2238310EA8FCF718FB93
:103EB00000210EA803F001FB0649A0601C2254312A
:103EC00015A8FCF70DFB002115A803F0F6FAE06039
:103ED0001CB010BD088100080000002070B586B03D
:103EE00014216846FCF750FB22480025016841F088
:103EF00002010160016801F002010591016841F0D1
:103F000008010160016801F008010591016841F0B4
:103F100004010160016801F004010591016841F0AC
:103F200001010160016801F001010591016841F0A2
:103F300080010160016801F080010591016841F094
:103F40001001016000680C4E00F010004FF4E054C6
:103F50000590012221463046FEF734F80121CDE9D3
:103F60000041CDE9021569463046FDF733FF06B042
:103F700070BD000030380240001C024010B592B005
:103F800000240F941C2108A81094FCF7FDFA2021AE
:103F90006846FCF7F9FA21481F490160A721C0E9EA
:103FA000011444F61F61C0E9031444618461FFF702
:103FB000A2FB08B1FDF793F80F940FA917481094CE
:103FC000FFF704F908B1FDF78AF8602008904FF474
:103FD000FA60CDE909040B940C940D94002208A911
:103FE0000E480E94FFF721FB08B1FDF778F8009416
:103FF0004FF40050CDE904400294019403946946C3
:1040000006480794FFF7B8F808B1FDF768F80348C9
:10401000FFF7C8FA12B010BD0000014054040020A0
:1040200010B58EB000240794089409940A940B9458
:104030001C2168460C94FCF7A7FA1E481C49C0E9ED
:10404000001445F20721C0E9024104618461FFF7D1
:1040500005F908B1FDF743F84FF48050079007A920
:104060001448FFF77DF908B1FDF739F81148FFF75B
:1040700042FB08B1FDF733F80B940BA90D480C94E3
:10408000FFF7A4F808B1FDF72AF86020CDE9000495
:1040900002940822694607480494FFF7C6FA08B15B
:1040A000FDF71DF80348FFF77DFA0EB010BD0000C4
:1040B000000800409C0400200D4810B50B49016029
:1040C0000C49416000214FF480628160C0E9031215
:1040D0000C22C0E90521C161FFF78EFC002803D046
:1040E000BDE81040FCF7FBBF10BD000000480040D9
:1040F000E4040020A086010010B500220F491048FA
:1041000001F00DFC08B1FCF7EAFF0E490C4801F084
:104110001BFE08B1FCF7E3FF0B49094801F0D8F991
:1041200008B1FCF7DCFF064801F092FE002803D03E
:10413000BDE81040FCF7D3BF10BD00001400002004
:10414000D0050020E000002064000020FEE74FF4CE
:104150009B71FCF7F7B9000070B55E4E0C465E4DE2
:104160003168491C31600068A0F2012007281BD289
:10417000DFE800F0041B324960778E00E078A17818
:10418000227800EB012001B2607800EB022000B23F
:104190000122FCF719FB6079217900EB0120A5F8D9
:1041A0003001A079A5F82E0188E0E078A178227886
:1041B00000EB012001B2607800EB022000B2022285
:1041C000FCF702FB6079217900EB0120A5F866027B
:1041D000A079A5F8640271E0E078A178227800EB7C
:1041E000012001B2607800EB022000B20322FCF74C
:1041F000EBFA6079217900EB0120A5F89C03A07906
:10420000A5F89A035AE0E078A178227800EB012023
:1042100001B2607800EB022000B20422FCF7D4FA6D
:104220006079217900EB0120A5F8D204A079A5F8E6
:10423000D00443E0E078A178227800EB012001B2BD
:10424000607800EB022000B20522FCF7BDFA60792D
:10425000217900EB0120A5F82A0CA079A5F8280CFB
:104260002CE0E078A178227800EB012001B26078A0
:1042700000EB022000B20622FCF7A6FA6079217951
:1042800000EB0120A5F8600DA079A5F85E0D15E002
:10429000E078A178227800EB012001B2607800EB91
:1042A000022000B20722FCF78FFA6079217900EB37
:1042B0000120A5F8BA09A079A5F8B8093068A0F5D9
:1042C0003061B83904D1022002F00AFF00203060CA
:1042D00070BD000088010020745F0020FEE7000030
:1042E0000148FEF7A1B80000CC1C002010B5142036
:1042F00003F036FC0B490020C0EB401202EB8202B7
:1043000001EB420201EB8003D2F82921401C042872
:104310001268C3F87A28EFDB04490348896888608B
:1043200010BD0000745F0020C1470008C85E002077
:10433000704700002DE9F04103680D4604461E6CED
:1043400003EB4511D1F8080BD4F810E04FF4004707
:104350004FF0200C04F2C442BEF1010F09D0DFF887
:1043600098E0764539D1020432D500BFC1F8087B08
:104370003FE0224B5FEA007E04D59E4239D900041B
:10438000F4D436E05FEA806E02D5C1F808CB30E0A5
:1043900010F0280F2DD19E4201D90004E6D405EB80
:1043A000C50004EB8000D1F8101BD0F89832C1F39F
:1043B0001201591AC0F89C1200F51F70ADB983693B
:1043C0001BB10269114401610FE0012120680AE07C
:1043D00080060AD5C1F808CB07E035B9D4F89402B5
:1043E00018B90021184602F031F9E9B22046FDF76C
:1043F000F3FE0020BDE8F0810A31544F0A30544FDB
:104400002DE9F84F0E4601EBC60100EB8104814611
:104410000568616DE06D3C34884202D90120BDE839
:10442000F88F081AE168814200D20846C01C87084C
:1044300005EB46181BE000BFA0EB010AE068504501
:1044400000D282460AF10300870899F81000009014
:104450001FFA8AF3F2B22846216902F011FC2169A1
:1044600001EB0A002061216A01EB0A002062D8F802
:10447000180980B2B84205D3216AA069814201D2ED
:104480000028D9D1216AA069884208D806F00F0116
:1044900001208840D5F834188143C5F8341800202D
:1044A000BDE770B5044610EE100A2DED028BB0EE9C
:1044B000608AE060B4F84800C00502D5204602F0EA
:1044C000B1FE18EE102AA261E06808EE102A00EE94
:1044D000100A30EE480A10EE100AE063216C00EE7C
:1044E000100A00EE901A30EE600A10EE103A00EE5C
:1044F000100A2363B5EEC00AF1EE10FA00EE100ABE
:1045000001DCB1EE400A216D00EE901AB4EEE00A33
:10451000F1EE10FA7DDD216800EE100A00EE901A2F
:1045200020EE200A10EE105A00EE100A2562E5690E
:1045300000EE905A30EE800A10EE100AE061A56C91
:10454000280728D5636EA06800EE101A00EE903A96
:1045500001EE100A01EE901A00EE810A01EE100A37
:10456000C1EE000A01EE100AA06A71EE211A81EE76
:10457000801A00EE103A01EE900A606920EE200ADF
:1045800021EE800A01EE902A01EE210A01EE100AC6
:1045900000EE810A06E0A06800EE103A00EE900AF4
:1045A00020EE800A10EE100AA062A80602D520466E
:1045B000FCF790F9A16C88071ED5E06900EE900A1F
:1045C000E06C00EE100AF4EEC00AF1EE10FA00DD25
:1045D000E061E26900EE100A00EE902AB1EE400AB6
:1045E000F4EEC00AF1EE10FA06D200EE100AB1EEB7
:1045F000400A10EE100AE061606800EE100AE069FF
:1046000000EE900A20EE200A10EE100A6062C80642
:1046100000E064E016D5A06D00EE900AE06B00EEBD
:10462000100AF4EEC00AF1EE10FA0BDD00EE100AEB
:10463000606D00EE900AB4EEE00AF1EE10FA01D2DD
:1046400000206062080609D5A06A00EE100A04F195
:10465000680002F0C6FE10EE100AA062206A00EEAA
:10466000100A606A00EE900AA06A70EE200A00EE5E
:10467000100A30EE800A10EE100AE06294F848103A
:10468000490608D500EE100A04F1780002F0A9FEF0
:1046900010EE100AE06294F84800400722D5E06A64
:1046A00000EE900A606C00EE100AF4EEC00AF1EE23
:1046B00010FA00DDE062E16A00EE100A00EE901AE6
:1046C000B1EE400AF4EEC00AF1EE10FA0AD200EEA2
:1046D000100AB1EE400A10EE100AE06202E0204635
:1046E00002F015FFA0696061E0682061206B6063E3
:1046F000E06B2064E06ABDEC028B00EE100A70BD36
:1047000070B50D462DED048BB0EE418AF0EE608A57
:10471000B0EE409A04469021FBF714FF0020C4F845
:104720008C0019EE100A206018EE900A606018EEF6
:10473000100AA060A564BDEC048B70BD10291FD0C9
:1047400008DC092913D2DFE801F012361312221215
:1047500012121700202923D040291CD0802926D0EE
:10476000B1F5807F03D110EE101AC0F888107047A1
:1047700010EE101AC164704710EE101A41667047AF
:1047800010EE101A416510EE901A8165704710EE18
:10479000101A4164704710EE101AC0F88410704768
:1047A00010EE101AC16510EE901A0166704710EEF7
:1047B000101A4167704710EE101A0165704700002B
:1047C0000148D0F8861D0847745F002070B5194C69
:1047D000B4F9000000F02CF94FF42F75A84217DC53
:1047E000B4F9020000F024F9A84211DCB4F9040085
:1047F00000F01EF9A8420BDCB4F9080000F018F92B
:10480000A84205DCA07A18B1E07A08B1002070BD9A
:10481000002020806080A080E08020810221A172A1
:10482000E172A081E0812082A074E074A083012065
:1048300070BD0000B48F00202DE9F0410D46044604
:1048400003F0BCF82078617840EA0120C0F30A0147
:1048500029806078A278C00840EA4210C0F30A02BA
:104860006A80A078E378800940EA8300237940EAEF
:104870008320C0F30A03AB8020796679400840EAC0
:10488000C610C0F30A06EE806079C0F30110A8726A
:1048900060798009E872A079E77940EA0720A88169
:1048A000207A677A40EA0720E881A07AE77A40EA2E
:1048B00007202882207BA874607BE874A07BE77BBC
:1048C00040EA0720A883207C647CA1F580612980D0
:1048D000A2F580626A80A3F5806340EA0420AB8081
:1048E000A6F58066EE80A0F580602881002002F0A9
:1048F000F7FB0020BDE8F0810648002101804180DF
:104900008180C18001818181C18101828174C174F2
:1049100081837047B48F002000487047B48F002017
:1049200030B50468656945F0400565610468E5686F
:1049300045F01005E560846B2468256825F00105C5
:104940002560846B24682568ED07F6D1856B0468C3
:104950002D68241DAC60846B2468E160816B09685C
:104960000A61816B09684B60816B09680A6842F4CF
:1049700080220A60806B0068016841F001010160DB
:1049800030BD000018B401680A68920604D50868B2
:104990004868009018BC70470A68D206FAD50A68C1
:1049A00049680091816B09680A684FF02403140379
:1049B0001D4A0C6824F001040C60816B18D409684E
:1049C0004C68C4F12404A4B214804B60816B096864
:1049D0000A6842F400220A60806B0068016841F0B6
:1049E00001010160122CD5D1104901F1200017E01E
:1049F0000C686168C1F1240189B211806360826B27
:104A00001268136823F400231360806B0068026847
:104A100042F0010202601229BCD1044901F14400B4
:104A200018BCFFF709BF0000A8010020B48F0020C8
:104A3000002801DA404200B27047000010B5174C60
:104A40002068817A012902D1C17A012921D0B0F9E7
:104A5000060000EE100AA01DB8EEC00A02F0A5FC88
:104A60002068B0F9040000EE100A0C48B8EEC00A45
:104A7000163002F09AFC2068B0F90000BDE8104042
:104A8000404200EE100A0548B8EEC00A263002F097
:104A90008CBCBDE81040FFF7B3B80000FA6D0020F1
:104AA00010B52DED028BFFF727FF124C00209FED74
:104AB000128A84F8560121680220B0EE480AC872B2
:104AC00021688872A01D02F0A8FCB0EE480A04F12B
:104AD000160002F0A2FCB0EE480A04F1260002F033
:104AE0009CFCFFF719FF2060BDEC028BBDE8104075
:104AF000FCF7B0BAFA6D00200AD7A33D00F008F821
:104B00004FF4FA7003F02CF8FFF798FF0220F9E752
:104B100001490248FCF726BA6D070008846F00209F
:104B200000487047C85E002000487047FA6D0020BA
:104B300002F050BA0178407841EA00207047FFF750
:104B4000DBFA012002F0ADFCFBE7884201D0012036
:104B5000704700207047000010B5502080F3118886
:104B6000BFF34F8FBFF36F8F03F000FA18B1044902
:104B70004FF080500860002080F3118810BD0000C5
:104B800004ED00E010B5FCF765FAFCF781F9FFF7DA
:104B900087FFBDE81040FFF7CBBF000030B593B0F2
:104BA00030216846FBF7F0FC14210CA8FBF7ECFC65
:104BB0001D480025016841F080510160006800F047
:104BC000805011901948016841F4804101600068EB
:104BD000022400F480401190012000900004019014
:104BE0008001CDE9064006200890A820CDE90904FF
:104BF00007200B906846FEF707F908B172B6FEE78A
:104C00000CA90F2081E831004FF4A0500F904FF411
:104C10008050109005210CA8FDF7E4FF002801D07A
:104C200072B6FEE713B030BD40380240007000405D
:104C30000248016841F470010160704788ED00E0AE
:104C40000148FEF7FCBB000088050020F0B50268B3
:104C5000254C264D264E274F274B4FF0804CA04227
:104C600009D0604507D0A84205D0B04203D0B84271
:104C700001D0984204D122F0700E4A6842EA0E0236
:104C8000A0421BD0604519D0A84217D0B04215D021
:104C9000B84213D0984211D0184DA8420ED0184DEA
:104CA000A8420BD0174DA84208D0174DA84205D0F6
:104CB000164DA84202D0164DA84203D122F44075E9
:104CC000CA682A434D6922F080022A4302608A683A
:104CD000C2620A688262A04201D0984201D1096989
:104CE000016301214161F0BD00000140000400406A
:104CF00000080040000C004000040140004001405A
:104D0000004401400048014000180040001C0040E1
:104D10000020004010B5846842EA032224F47F4456
:104D20000A432243826010BD826822F070020A4367
:104D300042F0070181607047F0B5026A22F001027B
:104D40000262036A42688469124E24F073050C689B
:104D50002C4323F002058B682B430D4DA84201D054
:104D6000B04205D123F00807CB683B4323F004038E
:104D7000A84201D0B04205D14D6922F440721543DA
:104D80008A692A4342608461496841630362F0BDD5
:104D90000000014000040140F0B5026A22F0100258
:104DA0000262026A436884690D6824F4E64444EAB6
:104DB00005248D6822F0200242EA05120F4D104EA4
:104DC000A84201D0B04206D1CF6822F0800242EA68
:104DD000071222F04002A84201D0B04207D14D692B
:104DE00023F4406343EA85038D6943EA8503436006
:104DF0008461496881630262F0BD000000000140E7
:104E000000040140F0B5026A22F480720262026A74
:104E10004368C46922F4007224F073050C68124ED2
:104E20002C438D6842EA05220E4DA84201D0B042C3
:104E300006D1CF6822F4006242EA072222F480629F
:104E4000A84201D0B04207D14D6923F4405343EA50
:104E500005138D6943EA05134360C4614968C16362
:104E60000262F0BD000001400004014030B5026A5A
:104E700022F480520262046A4268C3690D6823F416
:104E8000E64343EA05238D6824F4005444EA0534DC
:104E9000084DA84202D0084DA84204D14D6922F421
:104EA000804242EA85124260C3614968016404623B
:104EB00030BD0000000001400004014010B5036A4D
:104EC000046A24F001040462846924F0F00444EAD2
:104ED000021423F00A020A438461026210BD10B575
:104EE000036A23F0100303628369046A23F47043A6
:104EF00043EA023224F0A00343EA01118261016215
:104F000010BD10B5806B0021C185C184FEF73EFC49
:104F100010BD01680C3151E8002F22F4907241E875
:104F20000023002BF5D10168143151E8002F22F045
:104F3000010241E80023002BF5D1016B012909D1C1
:104F400001680C3151E8002F22F0100241E80023E3
:104F5000002BF5D1202180F83E100021016370471D
:104F600008B590F83E10222901D0022008BD8268C1
:104F70004FF480539A4201D1016921B1816A9A426A
:104F80001BD04AB10AE00268816A5268C2F3080283
:104F90000A80816A891C08E0026972B1026852685D
:104FA00002F07F020A70816A491C8162C18D491E2C
:104FB0000904090CC18503D019E002685268F1E7C1
:104FC0000168CA6822F02002CA600168CA6822F437
:104FD0008072CA6001684A6922F001024A61202198
:104FE00080F83E10016B012903D0FEF791FD0020EF
:104FF00008BD0021016301680C3151E8002F22F047
:10500000100241E80023002BF5D101680A68D2069E
:1050100002D50A6849680091818DFEF7B6FBE6E784
:1050200070B5044600680169E26821F440511143FB
:1050300001612169A068E26908436169114308437D
:105040002168CA6849F20C639A430243CA60206827
:105050004169A26921F440711143416131492068DD
:10506000884202D03049884202D1FDF78BFE01E030
:10507000FDF778FEE2690023192164253226B2F596
:10508000004F626828D0A0FB0101930F9200FBF74C
:105090006BF90146B0FBF5F06FF01802504301EBDD
:1050A000800006EB0010B0FBF5F000F0F002B1FB61
:1050B000F5F002EB0012B1FBF5F06FF01803584366
:1050C00001EB800006EB0010B0FBF5F000F00F00E4
:1050D00021681044886070BDA0FB010192185B41FB
:1050E000FBF742F90146B0FBF5F00201B1FBF5F028
:1050F0006FF01803584301EB800006EBC000B0FBD3
:10510000F5F000F0F80002EB4002B1FBF5F0584377
:1051100001EB800006EBC000B0FBF5F000F00700EB
:10512000D6E70000001001400014014010B5FBF765
:105130009DFFBDE810400148FEF72ABBE4040020B3
:105140002DE9F0410C46D0F8D412D0F8C82200EB7B
:105150008101D1F8C01229B304F00F0606EB8603D3
:1051600000EB83050027AB694BB106EBC60602EBEB
:105170008602926CB3FBF2F602FB1632A2B1C1F8C2
:105180001472D0F8D42200EB8200D0F8C402036974
:105190002BB1D1F80802224601F50471984700208E
:1051A000BDE8F0810320FBE700231A462146AF61EA
:1051B00000F0ABFDF3E770B50546D0F8D40205EB7F
:1051C0008000D0F8C04294B1284600F080FCC4F8BA
:1051D0000C02D5F8D412D4F8040205EB8101D1F801
:1051E000C412CA6804F503719047002070BD032003
:1051F00070BD000070B5224D0446297800F0ABFB6D
:105200002878002600F00F0000EB800004EB8000FF
:1052100086846978204600F09EFB687800F00F00D5
:1052200000EB800004EB8000A0F86461A9782046C0
:1052300000F091FBA87800F00F0000EB800004EB79
:1052400080008684C684D4F8D40204EB8000D0F8B1
:10525000C01299B1D0F8C40240688047D4F8D40293
:1052600004EB8000D0F8C00200F073FFD4F8D40241
:1052700004EB8000C0F8C062C4F8BC62002070BDBE
:105280008C00002010B5D0F8D41200EB8100D0F8CB
:10529000C04284B1D0F8C41259B194F80002FF287A
:1052A00007D08B6894F8012221469847FF2084F8A4
:1052B0000002002010BD032010BD00000A21018063
:1052C000004870479000002070B5064682210C48C7
:1052D00000F0D1FA05460121094800F0CCFA044655
:1052E0008121074800F0C7FA0DB11021A9714021B2
:1052F00004B1A18000B1818043203080004870BD9E
:105300009C00002070B5064682210D4800F0B3FADB
:10531000054601210A4800F0AEFA044681210848FA
:1053200000F0A9FA0DB11021A9714FF4007104B178
:10533000A18000B1818043203080014870BD000011
:105340009C00002070B5064682210C4800F093FABC
:1053500005460121094800F08EFA044681210748DC
:1053600000F089FA0DB11021A971402104B1A1808A
:1053700000B1818043203080004870BD9C00002037
:105380002DE9F04704464FF40775284600F0E2FE89
:1053900006004FF0000863D02946FBF7F5F8D4F873
:1053A000D4023C4D04EB80004FF01009C0F8C062FD
:1053B000C4F8BC62207C4FF4007A0127F0B340238C
:1053C00002222978204600F0EFFB2878402300F0E5
:1053D0000F0000EB800004EB8000878402226978D4
:1053E000204600F0E1FB6878082300F00F0000EB96
:1053F000800004EB80000322A0F86471A9782046A5
:1054000001F00F0101EB810104EB8101A1F826906D
:10541000A97800F0C9FBA87800F00F0000EB80002D
:1054200004EB80008784C6F80482D4F8D40247468F
:1054300004EB8000D0F8C402006800E018E006F534
:10544000017680473761776132687AB1207CF8B1A4
:1054500040236978204600F0B3FB0020BDE8F087C8
:10546000D4F8D41204EB8101C1F8C0820220F5E720
:10547000534602222978204600F096FB28785346AE
:1054800000F00F0000EB800004EB80008784A5E7AC
:105490005346DEE78C00002010B5D0F8D41200EBA4
:1054A0008101D1F8C01259B1027C084C002AD1F810
:1054B000042207D04023617800F082FB002010BD59
:1054C000032010BD4FF40073F5E700008C000020AE
:1054D00039B1D0F8D42200EB8200C0F8C412002009
:1054E000704703207047D0F8D42200EB8200D0F838
:1054F000C00218B1C0F804120020704703207047A2
:10550000D0F8D43200EB8300D0F8C00228B1C0F844
:105510001022C0F8081200207047032070472DE9C0
:10552000FC410646D0F8D4020C4606EB8000002170
:10553000D0F8C0728DF80010ADF804100D4637B1E8
:10554000217811F060022FD0202A4BD102E00320F5
:10555000BDE8FC81E288F2B109060DD5D0F8C4029D
:1055600063783946D0F808C01846E047E288072A31
:1055700000D9072239462DE0607887F80002E088DC
:10558000402800D34020C2B287F801223946304675
:1055900000F058F82BE0D0F8C40263780022866847
:1055A00021461846B04722E0607830B101281ED06D
:1055B0000A2809D00B2815D110E096F89C02032880
:1055C00010D1022201A905E096F89C02032809D116
:1055D00001226946304600F04FF808E096F89C0238
:1055E000032804D02146304600F021F80325284640
:1055F000AEE710B5D0F8B82200245268904700B149
:105600000324204610BD0020704700207047134639
:1056100010B50A46002100F0D3FA002010BD134651
:1056200010B50A46002100F070FB002010BD10B537
:105630000446802100F04EFB2046BDE810400021CA
:1056400000F048BB10B50323C0F89432C0F85821CD
:105650001346C0F85C210A46002100F0B1FA002090
:1056600010BD10B50521C0F8941200231A46194642
:1056700000F0A6FA002010BD10B50223C0F8943245
:1056800082611346C2610A46002100F03EFB002001
:1056900010BD10B50421C0F8941200231A46194613
:1056A00000F033FB002010BD10B50A46024903A0EC
:1056B00000F005F9004810BDAC0800204344432029
:1056C000436F6E66696700001220088000487047CB
:1056D0003400002010B50A46024903A000F0EFF89C
:1056E000004810BDAC08002043444320496E746557
:1056F00072666163650000000420088000487047FE
:105700003000002010B50A46024903A000F0D7F887
:10571000004810BDAC08002053544D6963726F659A
:105720006C656374726F6E696373000010B50A462E
:10573000024903A000F0C3F8004810BDAC080020E7
:1057400053544D3332205669727475616C20436F27
:105750006D506F727400000010B51A2008800A485E
:105760000168001D0468001D0068081809D008229F
:105770000649FEF7EDF90549042210312046FEF7EF
:10578000E7F90248801E10BD107AFF1F4A00002072
:10579000F8B504460020ADF8000048880D46010A1F
:1057A00008295FD2DFE801F05E0409175E5E3C4520
:1057B000D4F8B412207C0A6819E0207C0226002864
:1057C000D4F8B80205D0C16A6846884701464670D9
:1057D00039E0816AF8E7C0B2062843D2DFE800F07A
:1057E000030A1014181CD4F8B402426805E0694694
:1057F00090471CE0D4F8B402826892B3207CF6E7AC
:10580000D4F8B402C268F8E7D4F8B4020269F4E745
:10581000D4F8B4024269F0E7D4F8B4028269ECE744
:10582000207CF0B9D4F8B802416B6846884701463D
:1058300009E0207CA8B9D4F8B802016B6846884713
:10584000014607204870EA888AB1BDF8000040B1DF
:10585000824200D90246ADF800202046FFF70CFF37
:10586000F8BDFFE729462046FFF7E1FEF8E72046AE
:10587000FFF70FFFF4E778B50E4642880178002560
:1058800004468A4212D9ADF800100AE0694600F0D9
:105890000FF84178052904D181780546B14205D039
:1058A00000256188BDF800209142EFD8284678BDD8
:1058B0000A8803781A440A8001780844704770B552
:1058C000002300281ED00025044602E06D1CEDB226
:1058D000641C2678002EF9D1022404EB45041480C0
:1058E0001278CA545B1C0322CA5400245B1C06E0D5
:1058F000CA545B1CDAB28C54521CD3B2401C0278DE
:10590000002AF5D170BD01004FF0000004D001293C
:1059100001D0022901D0032070470120704778B1DF
:105920000023C0F8B832C0F8C432C0F8D03209B190
:10593000C0F8B412012180F89C12027000F0CCB8BB
:105940000320704710B5D0F8C802FCF788FCBDE80A
:105950001040FFF7D8BF10B5D0F8C802FCF759FCCB
:10596000BDE81040FFF7CFBF2DE9F04117460446D0
:10597000002521B194F89C02032842D04CE0D4F8D1
:10598000941204F11400022935D1D0E902639E4239
:1059900006D9F21A826039462046FFF740FE0FE032
:1059A000B34214D14068984211D3D4F89812884277
:1059B0000DD2002211462046FFF731FEC4F898525E
:1059C00000231A461946204600F0FAF813E094F82E
:1059D0009C02032808D1D4F8B802C16821B1C4F8E8
:1059E000D452C168204688478021204600F072F9D1
:1059F0002046FFF736FE94F8A00268B184F8A05262
:105A00000AE0D4F8B802426932B1C4F8D45242690B
:105A100020469047002800D10020BDE8F08170B5F5
:105A200013460446002221B194F89C02032830D08A
:105A30003AE0D4F8941204F5AA70032934D1D0E9DD
:105A400002518D420AD96A1A82600846824200D306
:105A5000024619462046FFF7DAFD25E094F8AA022F
:105A600010F01F0003D0012802D0022800D000222D
:105A700094F89C02032808D1D4F8B802016921B136
:105A8000C4F8D4220169204688472046FFF701FE6A
:105A90000AE0D4F8B802836933B1C4F8D422826929
:105AA00020469047002800D1002070BD002070479C
:105AB00010B50024012180F89C12D0F8B82222B140
:105AC00052680179904700B10324204610BDD0F8F8
:105AD000C802FCF7F2BB000010B5017839BB1549CC
